{
  "_format": "hh-sol-artifact-1",
  "contractName": "Election",
  "sourceName": "contracts/Elecection.sol",
  "abi": [
    {
      "inputs": [],
      "stateMutability": "nonpayable",
      "type": "constructor"
    },
    {
      "inputs": [
        {
          "internalType": "string",
          "name": "_header",
          "type": "string"
        },
        {
          "internalType": "string",
          "name": "_slogan",
          "type": "string"
        }
      ],
      "name": "addCandidate",
      "outputs": [],
      "stateMutability": "nonpayable",
      "type": "function"
    },
    {
      "inputs": [],
      "name": "admin",
      "outputs": [
        {
          "internalType": "address",
          "name": "",
          "type": "address"
        }
      ],
      "stateMutability": "view",
      "type": "function"
    },
    {
      "inputs": [
        {
          "internalType": "uint256",
          "name": "",
          "type": "uint256"
        }
      ],
      "name": "candidateDetails",
      "outputs": [
        {
          "internalType": "uint256",
          "name": "candidateId",
          "type": "uint256"
        },
        {
          "internalType": "string",
          "name": "header",
          "type": "string"
        },
        {
          "internalType": "string",
          "name": "slogan",
          "type": "string"
        },
        {
          "internalType": "uint256",
          "name": "voteCount",
          "type": "uint256"
        }
      ],
      "stateMutability": "view",
      "type": "function"
    },
    {
      "inputs": [],
      "name": "endElection",
      "outputs": [],
      "stateMutability": "nonpayable",
      "type": "function"
    },
    {
      "inputs": [],
      "name": "getAdmin",
      "outputs": [
        {
          "internalType": "string",
          "name": "",
          "type": "string"
        }
      ],
      "stateMutability": "view",
      "type": "function"
    },
    {
      "inputs": [],
      "name": "getAdminEmail",
      "outputs": [
        {
          "internalType": "string",
          "name": "",
          "type": "string"
        }
      ],
      "stateMutability": "view",
      "type": "function"
    },
    {
      "inputs": [],
      "name": "getAdminName",
      "outputs": [
        {
          "internalType": "string",
          "name": "",
          "type": "string"
        }
      ],
      "stateMutability": "view",
      "type": "function"
    },
    {
      "inputs": [],
      "name": "getAdminTitle",
      "outputs": [
        {
          "internalType": "string",
          "name": "",
          "type": "string"
        }
      ],
      "stateMutability": "view",
      "type": "function"
    },
    {
      "inputs": [],
      "name": "getElectionTitle",
      "outputs": [
        {
          "internalType": "string",
          "name": "",
          "type": "string"
        }
      ],
      "stateMutability": "view",
      "type": "function"
    },
    {
      "inputs": [],
      "name": "getEnd",
      "outputs": [
        {
          "internalType": "bool",
          "name": "",
          "type": "bool"
        }
      ],
      "stateMutability": "view",
      "type": "function"
    },
    {
      "inputs": [],
      "name": "getOrganizationTitle",
      "outputs": [
        {
          "internalType": "string",
          "name": "",
          "type": "string"
        }
      ],
      "stateMutability": "view",
      "type": "function"
    },
    {
      "inputs": [],
      "name": "getStart",
      "outputs": [
        {
          "internalType": "bool",
          "name": "",
          "type": "bool"
        }
      ],
      "stateMutability": "view",
      "type": "function"
    },
    {
      "inputs": [],
      "name": "getTotalCandidate",
      "outputs": [
        {
          "internalType": "uint256",
          "name": "",
          "type": "uint256"
        }
      ],
      "stateMutability": "view",
      "type": "function"
    },
    {
      "inputs": [],
      "name": "getTotalVoter",
      "outputs": [
        {
          "internalType": "uint256",
          "name": "",
          "type": "uint256"
        }
      ],
      "stateMutability": "view",
      "type": "function"
    },
    {
      "inputs": [
        {
          "internalType": "string",
          "name": "_name",
          "type": "string"
        },
        {
          "internalType": "string",
          "name": "_phone",
          "type": "string"
        }
      ],
      "name": "registerAsVoter",
      "outputs": [],
      "stateMutability": "nonpayable",
      "type": "function"
    },
    {
      "inputs": [
        {
          "internalType": "string",
          "name": "_adminName",
          "type": "string"
        },
        {
          "internalType": "string",
          "name": "_adminEmail",
          "type": "string"
        },
        {
          "internalType": "string",
          "name": "_adminTitle",
          "type": "string"
        },
        {
          "internalType": "string",
          "name": "_electionTitle",
          "type": "string"
        },
        {
          "internalType": "string",
          "name": "_organizationTitle",
          "type": "string"
        }
      ],
      "name": "setElectionDetails",
      "outputs": [],
      "stateMutability": "nonpayable",
      "type": "function"
    },
    {
      "inputs": [
        {
          "internalType": "bool",
          "name": "_verifedStatus",
          "type": "bool"
        },
        {
          "internalType": "address",
          "name": "voterAddress",
          "type": "address"
        }
      ],
      "name": "verifyVoter",
      "outputs": [],
      "stateMutability": "nonpayable",
      "type": "function"
    },
    {
      "inputs": [
        {
          "internalType": "uint256",
          "name": "candidateId",
          "type": "uint256"
        }
      ],
      "name": "vote",
      "outputs": [],
      "stateMutability": "nonpayable",
      "type": "function"
    },
    {
      "inputs": [
        {
          "internalType": "address",
          "name": "",
          "type": "address"
        }
      ],
      "name": "voterDetails",
      "outputs": [
        {
          "internalType": "address",
          "name": "voterAddress",
          "type": "address"
        },
        {
          "internalType": "string",
          "name": "name",
          "type": "string"
        },
        {
          "internalType": "string",
          "name": "phone",
          "type": "string"
        },
        {
          "internalType": "bool",
          "name": "isVerified",
          "type": "bool"
        },
        {
          "internalType": "bool",
          "name": "hasVoted",
          "type": "bool"
        },
        {
          "internalType": "bool",
          "name": "isRegistered",
          "type": "bool"
        }
      ],
      "stateMutability": "view",
      "type": "function"
    },
    {
      "inputs": [
        {
          "internalType": "uint256",
          "name": "",
          "type": "uint256"
        }
      ],
      "name": "voters",
      "outputs": [
        {
          "internalType": "address",
          "name": "",
          "type": "address"
        }
      ],
      "stateMutability": "view",
      "type": "function"
    }
  ],
  "bytecode": "0x608060405234801561001057600080fd5b50336000806101000a81548173ffffffffffffffffffffffffffffffffffffffff021916908373ffffffffffffffffffffffffffffffffffffffff160217905550600060018190555060006002819055506000600360006101000a81548160ff0219169083151502179055506000600360016101000a81548160ff021916908315150217905550611e0b806100a66000396000f3fe608060405234801561001057600080fd5b506004361061012c5760003560e01c806364d198a1116100ad578063c5292c6711610071578063c5292c6714610303578063da58c7d914610321578063e173730c14610351578063f851a4401461036f578063fee0d19a1461038d5761012c565b806364d198a11461026d5780636e9960c31461028b578063831318f1146102a95780639f05a36d146102c7578063be081b6f146102e55761012c565b806348343175116100f457806348343175146101c1578063506b8e0a146101df5780635938750d146101fb57806359f78468146102305780636247e5321461023a5761012c565b80630121b93f146101315780630b93400e1461014d5780630e2354cf1461016b578063253e74e21461018957806326541b56146101a5575b600080fd5b61014b600480360381019061014691906113b8565b6103a9565b005b610155610535565b60405161016291906113f4565b60405180910390f35b61017361053f565b604051610180919061149f565b60405180910390f35b6101a3600480360381019061019e91906115f6565b6105d4565b005b6101bf60048036038101906101ba91906116fd565b610703565b005b6101c96107fa565b6040516101d6919061149f565b60405180910390f35b6101f960048036038101906101f4919061180b565b61088f565b005b6102156004803603810190610210919061184b565b610945565b60405161022796959493929190611896565b60405180910390f35b610238610ad8565b005b610254600480360381019061024f91906113b8565b610b68565b6040516102649493929190611905565b60405180910390f35b610275610ca8565b60405161028291906113f4565b60405180910390f35b610293610cb2565b6040516102a0919061149f565b60405180910390f35b6102b1610cfa565b6040516102be919061149f565b60405180910390f35b6102cf610d8f565b6040516102dc9190611958565b60405180910390f35b6102ed610da6565b6040516102fa919061149f565b60405180910390f35b61030b610e3b565b6040516103189190611958565b60405180910390f35b61033b600480360381019061033691906113b8565b610e52565b6040516103489190611973565b60405180910390f35b610359610e91565b604051610366919061149f565b60405180910390f35b610377610f26565b6040516103849190611973565b60405180910390f35b6103a760048036038101906103a291906116fd565b610f4a565b005b60001515600b60003373ffffffffffffffffffffffffffffffffffffffff1673ffffffffffffffffffffffffffffffffffffffff16815260200190815260200160002060030160019054906101000a900460ff1615151461040957600080fd5b60011515600b60003373ffffffffffffffffffffffffffffffffffffffff1673ffffffffffffffffffffffffffffffffffffffff16815260200190815260200160002060030160009054906101000a900460ff1615151461046957600080fd5b60011515600360009054906101000a900460ff1615151461048957600080fd5b60001515600360019054906101000a900460ff161515146104a957600080fd5b60016004600083815260200190815260200160002060030160008282546104d091906119bd565b925050819055506001600b60003373ffffffffffffffffffffffffffffffffffffffff1673ffffffffffffffffffffffffffffffffffffffff16815260200190815260200160002060030160016101000a81548160ff02191690831515021790555050565b6000600254905090565b60606005600001805461055190611a20565b80601f016020809104026020016040519081016040528092919081815260200182805461057d90611a20565b80156105ca5780601f1061059f576101008083540402835291602001916105ca565b820191906000526020600020905b8154815290600101906020018083116105ad57829003601f168201915b5050505050905090565b60008054906101000a900473ffffffffffffffffffffffffffffffffffffffff1673ffffffffffffffffffffffffffffffffffffffff163373ffffffffffffffffffffffffffffffffffffffff161461062c57600080fd5b6040518060a00160405280868152602001858152602001848152602001838152602001828152506005600082015181600001908161066a9190611bfd565b5060208201518160010190816106809190611bfd565b5060408201518160020190816106969190611bfd565b5060608201518160030190816106ac9190611bfd565b5060808201518160040190816106c29190611bfd565b509050506001600360006101000a81548160ff0219169083151502179055506000600360016101000a81548160ff0219169083151502179055505050505050565b60008054906101000a900473ffffffffffffffffffffffffffffffffffffffff1673ffffffffffffffffffffffffffffffffffffffff163373ffffffffffffffffffffffffffffffffffffffff161461075b57600080fd5b60006040518060800160405280600154815260200184815260200183815260200160008152509050806004600060015481526020019081526020016000206000820151816000015560208201518160010190816107b89190611bfd565b5060408201518160020190816107ce9190611bfd565b506060820151816003015590505060018060008282546107ee91906119bd565b92505081905550505050565b60606005600401805461080c90611a20565b80601f016020809104026020016040519081016040528092919081815260200182805461083890611a20565b80156108855780601f1061085a57610100808354040283529160200191610885565b820191906000526020600020905b81548152906001019060200180831161086857829003601f168201915b5050505050905090565b60008054906101000a900473ffffffffffffffffffffffffffffffffffffffff1673ffffffffffffffffffffffffffffffffffffffff163373ffffffffffffffffffffffffffffffffffffffff16146108e757600080fd5b81600b60008373ffffffffffffffffffffffffffffffffffffffff1673ffffffffffffffffffffffffffffffffffffffff16815260200190815260200160002060030160006101000a81548160ff0219169083151502179055505050565b600b6020528060005260406000206000915090508060000160009054906101000a900473ffffffffffffffffffffffffffffffffffffffff169080600101805461098e90611a20565b80601f01602080910402602001604051908101604052809291908181526020018280546109ba90611a20565b8015610a075780601f106109dc57610100808354040283529160200191610a07565b820191906000526020600020905b8154815290600101906020018083116109ea57829003601f168201915b505050505090806002018054610a1c90611a20565b80601f0160208091040260200160405190810160405280929190818152602001828054610a4890611a20565b8015610a955780601f10610a6a57610100808354040283529160200191610a95565b820191906000526020600020905b815481529060010190602001808311610a7857829003601f168201915b5050505050908060030160009054906101000a900460ff16908060030160019054906101000a900460ff16908060030160029054906101000a900460ff16905086565b60008054906101000a900473ffffffffffffffffffffffffffffffffffffffff1673ffffffffffffffffffffffffffffffffffffffff163373ffffffffffffffffffffffffffffffffffffffff1614610b3057600080fd5b6001600360016101000a81548160ff0219169083151502179055506000600360006101000a81548160ff021916908315150217905550565b6004602052806000526040600020600091509050806000015490806001018054610b9190611a20565b80601f0160208091040260200160405190810160405280929190818152602001828054610bbd90611a20565b8015610c0a5780601f10610bdf57610100808354040283529160200191610c0a565b820191906000526020600020905b815481529060010190602001808311610bed57829003601f168201915b505050505090806002018054610c1f90611a20565b80601f0160208091040260200160405190810160405280929190818152602001828054610c4b90611a20565b8015610c985780601f10610c6d57610100808354040283529160200191610c98565b820191906000526020600020905b815481529060010190602001808311610c7b57829003601f168201915b5050505050908060030154905084565b6000600154905090565b6060610cf560008054906101000a900473ffffffffffffffffffffffffffffffffffffffff1673ffffffffffffffffffffffffffffffffffffffff166014611132565b905090565b606060056001018054610d0c90611a20565b80601f0160208091040260200160405190810160405280929190818152602001828054610d3890611a20565b8015610d855780601f10610d5a57610100808354040283529160200191610d85565b820191906000526020600020905b815481529060010190602001808311610d6857829003601f168201915b5050505050905090565b6000600360019054906101000a900460ff16905090565b606060056002018054610db890611a20565b80601f0160208091040260200160405190810160405280929190818152602001828054610de490611a20565b8015610e315780601f10610e0657610100808354040283529160200191610e31565b820191906000526020600020905b815481529060010190602001808311610e1457829003601f168201915b5050505050905090565b6000600360009054906101000a900460ff16905090565b600a8181548110610e6257600080fd5b906000526020600020016000915054906101000a900473ffffffffffffffffffffffffffffffffffffffff1681565b606060056003018054610ea390611a20565b80601f0160208091040260200160405190810160405280929190818152602001828054610ecf90611a20565b8015610f1c5780601f10610ef157610100808354040283529160200191610f1c565b820191906000526020600020905b815481529060010190602001808311610eff57829003601f168201915b5050505050905090565b60008054906101000a900473ffffffffffffffffffffffffffffffffffffffff1681565b60006040518060c001604052803373ffffffffffffffffffffffffffffffffffffffff16815260200184815260200183815260200160011515815260200160001515815260200160011515815250905080600b60003373ffffffffffffffffffffffffffffffffffffffff1673ffffffffffffffffffffffffffffffffffffffff16815260200190815260200160002060008201518160000160006101000a81548173ffffffffffffffffffffffffffffffffffffffff021916908373ffffffffffffffffffffffffffffffffffffffff16021790555060208201518160010190816110369190611bfd565b50604082015181600201908161104c9190611bfd565b5060608201518160030160006101000a81548160ff02191690831515021790555060808201518160030160016101000a81548160ff02191690831515021790555060a08201518160030160026101000a81548160ff021916908315150217905550905050600a339080600181540180825580915050600190039060005260206000200160009091909190916101000a81548173ffffffffffffffffffffffffffffffffffffffff021916908373ffffffffffffffffffffffffffffffffffffffff16021790555060016002600082825461112691906119bd565b92505081905550505050565b6060600060028360026111459190611ccf565b61114f91906119bd565b67ffffffffffffffff811115611168576111676114cb565b5b6040519080825280601f01601f19166020018201604052801561119a5781602001600182028036833780820191505090505b5090507f3000000000000000000000000000000000000000000000000000000000000000816000815181106111d2576111d1611d11565b5b60200101907effffffffffffffffffffffffffffffffffffffffffffffffffffffffffffff1916908160001a9053507f78000000000000000000000000000000000000000000000000000000000000008160018151811061123657611235611d11565b5b60200101907effffffffffffffffffffffffffffffffffffffffffffffffffffffffffffff1916908160001a905350600060018460026112769190611ccf565b61128091906119bd565b90505b6001811115611320577f3031323334353637383961626364656600000000000000000000000000000000600f8616601081106112c2576112c1611d11565b5b1a60f81b8282815181106112d9576112d8611d11565b5b60200101907effffffffffffffffffffffffffffffffffffffffffffffffffffffffffffff1916908160001a905350600485901c94508061131990611d40565b9050611283565b5060008414611364576040517f08c379a000000000000000000000000000000000000000000000000000000000815260040161135b90611db5565b60405180910390fd5b8091505092915050565b6000604051905090565b600080fd5b600080fd5b6000819050919050565b61139581611382565b81146113a057600080fd5b50565b6000813590506113b28161138c565b92915050565b6000602082840312156113ce576113cd611378565b5b60006113dc848285016113a3565b91505092915050565b6113ee81611382565b82525050565b600060208201905061140960008301846113e5565b92915050565b600081519050919050565b600082825260208201905092915050565b60005b8381101561144957808201518184015260208101905061142e565b60008484015250505050565b6000601f19601f8301169050919050565b60006114718261140f565b61147b818561141a565b935061148b81856020860161142b565b61149481611455565b840191505092915050565b600060208201905081810360008301526114b98184611466565b905092915050565b600080fd5b600080fd5b7f4e487b7100000000000000000000000000000000000000000000000000000000600052604160045260246000fd5b61150382611455565b810181811067ffffffffffffffff82111715611522576115216114cb565b5b80604052505050565b600061153561136e565b905061154182826114fa565b919050565b600067ffffffffffffffff821115611561576115606114cb565b5b61156a82611455565b9050602081019050919050565b82818337600083830152505050565b600061159961159484611546565b61152b565b9050828152602081018484840111156115b5576115b46114c6565b5b6115c0848285611577565b509392505050565b600082601f8301126115dd576115dc6114c1565b5b81356115ed848260208601611586565b91505092915050565b600080600080600060a0868803121561161257611611611378565b5b600086013567ffffffffffffffff8111156116305761162f61137d565b5b61163c888289016115c8565b955050602086013567ffffffffffffffff81111561165d5761165c61137d565b5b611669888289016115c8565b945050604086013567ffffffffffffffff81111561168a5761168961137d565b5b611696888289016115c8565b935050606086013567ffffffffffffffff8111156116b7576116b661137d565b5b6116c3888289016115c8565b925050608086013567ffffffffffffffff8111156116e4576116e361137d565b5b6116f0888289016115c8565b9150509295509295909350565b6000806040838503121561171457611713611378565b5b600083013567ffffffffffffffff8111156117325761173161137d565b5b61173e858286016115c8565b925050602083013567ffffffffffffffff81111561175f5761175e61137d565b5b61176b858286016115c8565b9150509250929050565b60008115159050919050565b61178a81611775565b811461179557600080fd5b50565b6000813590506117a781611781565b92915050565b600073ffffffffffffffffffffffffffffffffffffffff82169050919050565b60006117d8826117ad565b9050919050565b6117e8816117cd565b81146117f357600080fd5b50565b600081359050611805816117df565b92915050565b6000806040838503121561182257611821611378565b5b600061183085828601611798565b9250506020611841858286016117f6565b9150509250929050565b60006020828403121561186157611860611378565b5b600061186f848285016117f6565b91505092915050565b611881816117cd565b82525050565b61189081611775565b82525050565b600060c0820190506118ab6000830189611878565b81810360208301526118bd8188611466565b905081810360408301526118d18187611466565b90506118e06060830186611887565b6118ed6080830185611887565b6118fa60a0830184611887565b979650505050505050565b600060808201905061191a60008301876113e5565b818103602083015261192c8186611466565b905081810360408301526119408185611466565b905061194f60608301846113e5565b95945050505050565b600060208201905061196d6000830184611887565b92915050565b60006020820190506119886000830184611878565b92915050565b7f4e487b7100000000000000000000000000000000000000000000000000000000600052601160045260246000fd5b60006119c882611382565b91506119d383611382565b92508282019050808211156119eb576119ea61198e565b5b92915050565b7f4e487b7100000000000000000000000000000000000000000000000000000000600052602260045260246000fd5b60006002820490506001821680611a3857607f821691505b602082108103611a4b57611a4a6119f1565b5b50919050565b60008190508160005260206000209050919050565b60006020601f8301049050919050565b600082821b905092915050565b600060088302611ab37fffffffffffffffffffffffffffffffffffffffffffffffffffffffffffffffff82611a76565b611abd8683611a76565b95508019841693508086168417925050509392505050565b6000819050919050565b6000611afa611af5611af084611382565b611ad5565b611382565b9050919050565b6000819050919050565b611b1483611adf565b611b28611b2082611b01565b848454611a83565b825550505050565b600090565b611b3d611b30565b611b48818484611b0b565b505050565b5b81811015611b6c57611b61600082611b35565b600181019050611b4e565b5050565b601f821115611bb157611b8281611a51565b611b8b84611a66565b81016020851015611b9a578190505b611bae611ba685611a66565b830182611b4d565b50505b505050565b600082821c905092915050565b6000611bd460001984600802611bb6565b1980831691505092915050565b6000611bed8383611bc3565b9150826002028217905092915050565b611c068261140f565b67ffffffffffffffff811115611c1f57611c1e6114cb565b5b611c298254611a20565b611c34828285611b70565b600060209050601f831160018114611c675760008415611c55578287015190505b611c5f8582611be1565b865550611cc7565b601f198416611c7586611a51565b60005b82811015611c9d57848901518255600182019150602085019450602081019050611c78565b86831015611cba5784890151611cb6601f891682611bc3565b8355505b6001600288020188555050505b505050505050565b6000611cda82611382565b9150611ce583611382565b9250828202611cf381611382565b91508282048414831517611d0a57611d0961198e565b5b5092915050565b7f4e487b7100000000000000000000000000000000000000000000000000000000600052603260045260246000fd5b6000611d4b82611382565b915060008203611d5e57611d5d61198e565b5b600182039050919050565b7f537472696e67733a20686578206c656e67746820696e73756666696369656e74600082015250565b6000611d9f60208361141a565b9150611daa82611d69565b602082019050919050565b60006020820190508181036000830152611dce81611d92565b905091905056fea2646970667358221220fd575762384aed6e43f3cfadd1d1089a75f22eb2381752bc9326bbf57f67846a64736f6c63430008110033",
  "linkReferences": {},
  "deployedLinkReferences": {}
}